:100000000C947A000C94DA000C94DA000C94DA0068
:100010000C94DA000C94DA000C94DA000C94DA00F8
:100020000C94DA000C94DA000C94DA000C94DA00E8
:100030000C94DA000C94DA000C94DA000C94DA00D8
:100040000C94DA000C94DA000C94DA000C94DA00C8
:100050000C94DA000C94DA000C94DA000C94DA00B8
:100060000C94DA000C94DA000C94DA000C94DA00A8
:100070000C94DA000C94DA000C94DA000C94DA0098
:100080000C94DA000C94DA000C94DA000C94DA0088
:100090000C94DA000C94DA000C94DA000C94DA0078
:1000A0000C94DA000C94DA000C94DA000C94DA0068
:1000B0000C94DA000C94DA000C94DA000C94DA0058
:1000C0000C94DA000C94DA000C94DA000C94DA0048
:1000D0000C94DA000C94DA000C94DA000C94DA0038
:1000E0000C94DA000C94DA000C94DA000C94DA0028
:1000F0000C94DA0011241FBECFEFCDBFDFE7DEBFC7
:0C0100000E9486000C94B400F894FFCF1D
:10010C000E94A9000E94C7000E949B000E94BF0091
:10011C000E94CD008111FCCF0E94D2000E94CD0024
:0A012C008823E1F30E94D600F3CF10
:10013600E0E6F4E084E08283828BE0E8F6E083E0A8
:0C01460082838AE1858381E38083089531
:10015200E0E2F4E09CE093878FEF8487E0E4F4E050
:06016200938784870895D5
:10016800EC010E94DF000E94DE00CE010E94E00048
:06017800CE010E94DC0034
:10017E0080E88093B40088E08A95F1F70000089536
:0C018E00E0E0F4E084E0818386830895C3
:0A019A008091870682958170089518
:0801A40084E080930604089535
:0801AC0084E08093050408952E
:0401B4000C940000A7
:0401B8000E9484001D
:0201BC000895A4
:0201BE000895A2
:0201C0000895A0
:00000001FF
