:100000000C947E000C9438010C9438010C94380147
:100010000C9438010C9438010C9438010C9438017C
:100020000C9438010C9438010C9438010C9438016C
:100030000C9438010C9438010C9438010C9438015C
:100040000C9438010C9438010C9438010C9438014C
:100050000C9438010C9438010C9438010C9438013C
:100060000C9438010C9438010C9438010C9438012C
:100070000C9438010C9438010C9438010C9438011C
:100080000C9438010C9438010C9438010C9438010C
:100090000C9438010C9438010C9438010C943801FC
:1000A0000C9438010C9438010C9438010C943801EC
:1000B0000C9438010C9438010C9438010C943801DC
:1000C0000C9438010C9438010C9438010C943801CC
:1000D0000C9438010C9438010C9438010C943801BC
:1000E0000C9438010C9438010C9438010C943801AC
:1000F0000C9438014000402700027E0011241FBEEE
:10010000CFEFCDBFDFE7DEBFE4EFF0E040E019C0A6
:10011000B791A79137912791079107FD0EC097914D
:100120008791EF01F92FE82F0BBF07900D92A217CF
:10013000B307D9F7FE011BBE04C01D92A217B30777
:10014000E1F7EB3FF40721F70E94AA000C9413019A
:04015000F894FFCF51
:100154000E94F1000E9426010E94030180E090E4C5
:100164000E94CF000E942C01882339F080E190E4A2
:100174000E94CF000E94300106C08BE190E40E94EF
:10018400CF000E9434012FEF84E39CE02150804093
:0A0194009040E1F700C00000E5CF45
:10019E00EF92FF920F931F93CF93DF938C017C010D
:1001AE00C0E0D0E006C0F70181917F010E941E01E0
:1001BE002196F80101900020E9F73197E01BF10B31
:1001CE00CE17DF0780F3DF91CF911F910F91FF9034
:0401DE00EF90089501
:1001E200E0E2F4E080818D7F808380818160808382
:1001F200E0E6F8E083E896E0808791878681806C6C
:040202008683089552
:100206001092B400E0E6F4E084E08283828BE0E8BA
:10021600F6E083E1828383E9808380E28583089523
:10022600EC010E943D010E943C01CE010E943E016C
:06023600CE010E943A0116
:10023C00E0E6F8E0948195FFFDCF80936208089585
:0C024C00E0E0F4E084E081838683089504
:08025800809187068071089572
:0802600084E080930504089579
:0802680084E080930604089570
:040270000C940000EA
:040274000E94A8003C
:020278000895E7
:02027A000895E5
:02027C000895E3
:10027E0048656C6C6F2C20576F726C64210D0A00F0
:10028E004143206973204F4E0D0A0041432069738C
:07029E00204F46460D0A0047
:00000001FF
