:100000000C947E000C9422010C9422010C94220189
:100010000C9422010C9422010C9422010C942201D4
:100020000C9422010C9422010C9422010C942201C4
:100030000C9422010C9422010C9422010C942201B4
:100040000C9422010C9422010C9422010C942201A4
:100050000C9422010C9422010C9422010C94220194
:100060000C9422010C9422010C9422010C94220184
:100070000C9422010C9422010C9422010C94220174
:100080000C9422010C9422010C9422010C94220164
:100090000C9422010C9422010C9422010C94220154
:1000A0000C9422010C9422010C9422010C94220144
:1000B0000C9422010C9422010C9422010C94220134
:1000C0000C9422010C9422010C9422010C94220124
:1000D0000C9422010C9422010C9422010C94220114
:1000E0000C9422010C9422010C9422010C94220104
:1000F0000C942201400040290002520011241FBE2E
:10010000CFEFCDBFDFE7DEBFE4EFF0E040E019C0A6
:10011000B791A79137912791079107FD0EC097914D
:100120008791EF01F92FE82F0BBF07900D92A217CF
:10013000B307D9F7FE011BBE04C01D92A217B30777
:10014000E1F7EB3FF40721F70E94CC000C94FF008D
:04015000F894FFCF51
:10015400EF92FF920F931F93CF93DF938C017C0157
:10016400C0E0D0E006C0F70181917F010E940A013E
:100174002196F80101900020E9F73197E01BF10B7B
:10018400CE17DF0780F3DF91CF911F910F91FF907E
:04019400EF9008954B
:100198000E94ED000E94120180E090E40E94AA00F3
:1001A8000E941E010E941801882329F080E190E432
:1001B8000E94AA0004C08CE190E40E94AA002FEFDC
:1001C80084E39CE0215080409040E1F700C00000AB
:0201D800E7CF6F
:1001DA00E0E2F4E080818D7F80838081816080838A
:1001EA00E0E6F8E083E896E0808791878681806C74
:0401FA00868308955B
:1001FE00EC010E9427010E942601CE010E942801D7
:06020E00CE010E94240154
:10021400E0E6F8E0948195FFFDCF809362080895AD
:0C022400E0E0F4E084E08183868308952C
:0C0230008091040482FB882780F9089567
:08023C0084E08093070408959B
:040244000C94000016
:040248000E94A80068
:02024C00089513
:02024E00089511
:0202500008950F
:1002520048656C6C6F2C20576F726C64210D0A001C
:100262004C4544206973204F4E0D0A004C454420F2
:090272006973204F46460D0A0095
:00000001FF
