:100000000C947E000C9492010C9492010C94920139
:100010000C9492010C9492010C9492010C94920114
:100020000C9492010C94AA000C9492010C949201ED
:100030000C9492010C9492010C9492010C949201F4
:100040000C9492010C9492010C9492010C949201E4
:100050000C9492010C9492010C9492010C949201D4
:100060000C9492010C9492010C9492010C949201C4
:100070000C9492010C9492010C9492010C949201B4
:100080000C9492010C9492010C9492010C949201A4
:100090000C9492010C9492010C9492010C94920194
:1000A0000C9492010C9492010C9492010C94920184
:1000B0000C9492010C9492010C9492010C94920174
:1000C0000C9492010C9492010C9492010C94920164
:1000D0000C9492010C9492010C9492010C94920154
:1000E0000C9492010C9492010C9492010C94920144
:1000F0000C949201400040380003320011241FBECE
:10010000CFEFCDBFDFE7DEBFE4EFF0E040E019C0A6
:10011000B791A79137912791079107FD0EC097914D
:100120008791EF01F92FE82F0BBF07900D92A217CF
:10013000B307D9F7FE011BBE04C01D92A217B30777
:10014000E1F7EB3FF40721F70E9406010C946401EC
:04015000F894FFCF51
:100154001F920F920FB60F9211240BB60F922F938A
:100164003F934F935F936F937F938F939F93AF933B
:10017400BF93EF93FF9381E080930B0A0E94850164
:10018400882339F00E948E0180E090E40E94E4000C
:1001940006C00E948A0185E190E40E94E400FF9178
:1001A400EF91BF91AF919F918F917F916F915F91EB
:1001B4004F913F912F910F900BBE0F900FBE0F9058
:0401C4001F901895DB
:1001C800EF92FF920F931F93CF93DF938C017C01E3
:1001D800C0E0D0E006C0F70181917F010E9477015D
:1001E8002196F80101900020E9F73197E01BF10B07
:1001F800CE17DF0780F3DF91CF911F910F91FF900A
:04020800EF900895D6
:10020C000E9431010E947F010E946F010E945601E1
:10021C000E94440180E197E20E941E0178948AE2D8
:10022C0090E40E94E40082E0809350008895FECF19
:10023C0020ED37E0AC01429FC001439F900D529FCF
:10024C00900D1124E0E0FAE086A397A383E8808365
:06025C0081E08287089595
:10026200E0E0F4E09CE093878FEF8487E0E2F4E043
:1002720093878487E0E4F4E093878487E0E6F4E000
:06028200938784870895B4
:10028800E0E2F4E080818D7F8083808181608083DB
:10029800E0E6F8E083E896E0808791878681806CC5
:0402A80086830895AC
:1002AC00E0E6F4E084E08283828BE0E8F6E083E031
:0C02BC0082838AE1858381EB80830895B2
:1002C800EC010E9497010E949601CE010E949801BC
:0602D800CE010E9494011A
:1002DE0080E88093B40088E08A95F1F700000895D5
:1002EE00E0E6F8E0948195FFFDCF809362080895D3
:0C02FE00E0E0F4E084E081838683089552
:0A030A0080918706829581700895A6
:0803140084E0809306040895C3
:08031C0084E0809305040895BC
:040324000C94000035
:040328000E94A80087
:02032C00089532
:02032E00089530
:0203300008952E
:1003320041432061626F7665207468726573686FED
:100342006C64210A0041432062656C6F77207468F7
:10035200726573686F6C64210A0048656C6C6F206B
:08036200576F726C64210A0060
:00000001FF
