:100000000C947A000C94A1000C94A1000C94A10013
:100010000C94A1000C94A1000C94A1000C94A100DC
:100020000C94A1000C94A1000C94A1000C94A100CC
:100030000C94A1000C94A1000C94A1000C94A100BC
:100040000C94A1000C94A1000C94A1000C94A100AC
:100050000C94A1000C94A1000C94A1000C94A1009C
:100060000C94A1000C94A1000C94A1000C94A1008C
:100070000C94A1000C94A1000C94A1000C94A1007C
:100080000C94A1000C94A1000C94A1000C94A1006C
:100090000C94A1000C94A1000C94A1000C94A1005C
:1000A0000C94A1000C94A1000C94A1000C94A1004C
:1000B0000C94A1000C94A1000C94A1000C94A1003C
:1000C0000C94A1000C94A1000C94A1000C94A1002C
:1000D0000C94A1000C94A1000C94A1000C94A1001C
:1000E0000C94A1000C94A1000C94A1000C94A1000C
:1000F0000C94A10011241FBECFEFCDBFDFE7DEBF00
:0C0100000E9486000C949600F894FFCF3B
:10010C0088E080932104E0E2F4E087832FE936E86D
:10011C0091E0215030409040E1F700C00000F5CF55
:10012C00EC010E94A6000E94A500CE010E94A7002F
:06013C00CE010E94A300A9
:040142000C94000019
:040146000E9484008F
:02014A00089516
:02014C00089514
:02014E00089512
:00000001FF
